{
    "contractName": "GenTokenV2",
    "abi": [
        {
            "constant": true,
            "inputs": [],
            "name": "name",
            "outputs": [
                {
                    "name": "",
                    "type": "string"
                }
            ],
            "payable": false,
            "stateMutability": "view",
            "type": "function"
        },
        {
            "constant": false,
            "inputs": [],
            "name": "stop",
            "outputs": [],
            "payable": false,
            "stateMutability": "nonpayable",
            "type": "function"
        },
        {
            "constant": false,
            "inputs": [
                {
                    "name": "spender",
                    "type": "address"
                },
                {
                    "name": "value",
                    "type": "uint256"
                }
            ],
            "name": "approve",
            "outputs": [
                {
                    "name": "",
                    "type": "bool"
                }
            ],
            "payable": false,
            "stateMutability": "nonpayable",
            "type": "function"
        },
        {
            "constant": false,
            "inputs": [
                {
                    "name": "_signature",
                    "type": "bytes"
                },
                {
                    "name": "_to",
                    "type": "address"
                },
                {
                    "name": "_value",
                    "type": "uint256"
                },
                {
                    "name": "_fee",
                    "type": "uint256"
                },
                {
                    "name": "_nonce",
                    "type": "uint256"
                }
            ],
            "name": "transferPreSigned",
            "outputs": [
                {
                    "name": "",
                    "type": "bool"
                }
            ],
            "payable": false,
            "stateMutability": "nonpayable",
            "type": "function"
        },
        {
            "constant": true,
            "inputs": [
                {
                    "name": "_token",
                    "type": "address"
                },
                {
                    "name": "_to",
                    "type": "address"
                },
                {
                    "name": "_value",
                    "type": "uint256"
                },
                {
                    "name": "_fee",
                    "type": "uint256"
                },
                {
                    "name": "_nonce",
                    "type": "uint256"
                }
            ],
            "name": "transferPreSignedHashing",
            "outputs": [
                {
                    "name": "",
                    "type": "bytes32"
                }
            ],
            "payable": false,
            "stateMutability": "pure",
            "type": "function"
        },
        {
            "constant": true,
            "inputs": [],
            "name": "totalSupply",
            "outputs": [
                {
                    "name": "",
                    "type": "uint256"
                }
            ],
            "payable": false,
            "stateMutability": "view",
            "type": "function"
        },
        {
            "constant": true,
            "inputs": [
                {
                    "name": "hash",
                    "type": "bytes32"
                },
                {
                    "name": "sig",
                    "type": "bytes"
                }
            ],
            "name": "recover",
            "outputs": [
                {
                    "name": "",
                    "type": "address"
                }
            ],
            "payable": false,
            "stateMutability": "pure",
            "type": "function"
        },
        {
            "constant": false,
            "inputs": [
                {
                    "name": "sender",
                    "type": "address"
                },
                {
                    "name": "recipient",
                    "type": "address"
                },
                {
                    "name": "amount",
                    "type": "uint256"
                }
            ],
            "name": "transferFrom",
            "outputs": [
                {
                    "name": "",
                    "type": "bool"
                }
            ],
            "payable": false,
            "stateMutability": "nonpayable",
            "type": "function"
        },
        {
            "constant": true,
            "inputs": [],
            "name": "decimals",
            "outputs": [
                {
                    "name": "",
                    "type": "uint8"
                }
            ],
            "payable": false,
            "stateMutability": "view",
            "type": "function"
        },
        {
            "constant": false,
            "inputs": [
                {
                    "name": "spender",
                    "type": "address"
                },
                {
                    "name": "addedValue",
                    "type": "uint256"
                }
            ],
            "name": "increaseAllowance",
            "outputs": [
                {
                    "name": "",
                    "type": "bool"
                }
            ],
            "payable": false,
            "stateMutability": "nonpayable",
            "type": "function"
        },
        {
            "constant": false,
            "inputs": [
                {
                    "name": "account",
                    "type": "address"
                },
                {
                    "name": "releaseTime",
                    "type": "uint256"
                },
                {
                    "name": "amount",
                    "type": "uint256"
                }
            ],
            "name": "setLock",
            "outputs": [],
            "payable": false,
            "stateMutability": "nonpayable",
            "type": "function"
        },
        {
            "constant": false,
            "inputs": [
                {
                    "name": "value",
                    "type": "uint256"
                }
            ],
            "name": "burn",
            "outputs": [],
            "payable": false,
            "stateMutability": "nonpayable",
            "type": "function"
        },
        {
            "constant": true,
            "inputs": [
                {
                    "name": "account",
                    "type": "address"
                }
            ],
            "name": "getLock",
            "outputs": [
                {
                    "name": "lockTime",
                    "type": "uint256"
                },
                {
                    "name": "lockAmount",
                    "type": "uint256"
                }
            ],
            "payable": false,
            "stateMutability": "view",
            "type": "function"
        },
        {
            "constant": true,
            "inputs": [
                {
                    "name": "",
                    "type": "address"
                }
            ],
            "name": "_balances",
            "outputs": [
                {
                    "name": "",
                    "type": "uint256"
                }
            ],
            "payable": false,
            "stateMutability": "view",
            "type": "function"
        },
        {
            "constant": true,
            "inputs": [
                {
                    "name": "owner",
                    "type": "address"
                }
            ],
            "name": "balanceOf",
            "outputs": [
                {
                    "name": "",
                    "type": "uint256"
                }
            ],
            "payable": false,
            "stateMutability": "view",
            "type": "function"
        },
        {
            "constant": true,
            "inputs": [],
            "name": "stopped",
            "outputs": [
                {
                    "name": "",
                    "type": "bool"
                }
            ],
            "payable": false,
            "stateMutability": "view",
            "type": "function"
        },
        {
            "constant": false,
            "inputs": [
                {
                    "name": "from",
                    "type": "address"
                },
                {
                    "name": "value",
                    "type": "uint256"
                }
            ],
            "name": "burnFrom",
            "outputs": [],
            "payable": false,
            "stateMutability": "nonpayable",
            "type": "function"
        },
        {
            "constant": true,
            "inputs": [],
            "name": "owner",
            "outputs": [
                {
                    "name": "",
                    "type": "address"
                }
            ],
            "payable": false,
            "stateMutability": "view",
            "type": "function"
        },
        {
            "constant": false,
            "inputs": [
                {
                    "name": "_signature",
                    "type": "bytes"
                },
                {
                    "name": "_to",
                    "type": "address"
                },
                {
                    "name": "_value",
                    "type": "uint256"
                },
                {
                    "name": "_fee",
                    "type": "uint256"
                },
                {
                    "name": "_nonce",
                    "type": "uint256"
                }
            ],
            "name": "transferPreSignedOwner",
            "outputs": [
                {
                    "name": "",
                    "type": "bool"
                }
            ],
            "payable": false,
            "stateMutability": "nonpayable",
            "type": "function"
        },
        {
            "constant": true,
            "inputs": [],
            "name": "symbol",
            "outputs": [
                {
                    "name": "",
                    "type": "string"
                }
            ],
            "payable": false,
            "stateMutability": "view",
            "type": "function"
        },
        {
            "constant": false,
            "inputs": [
                {
                    "name": "spender",
                    "type": "address"
                },
                {
                    "name": "subtractedValue",
                    "type": "uint256"
                }
            ],
            "name": "decreaseAllowance",
            "outputs": [
                {
                    "name": "",
                    "type": "bool"
                }
            ],
            "payable": false,
            "stateMutability": "nonpayable",
            "type": "function"
        },
        {
            "constant": false,
            "inputs": [
                {
                    "name": "recipient",
                    "type": "address"
                },
                {
                    "name": "amount",
                    "type": "uint256"
                }
            ],
            "name": "transfer",
            "outputs": [
                {
                    "name": "",
                    "type": "bool"
                }
            ],
            "payable": false,
            "stateMutability": "nonpayable",
            "type": "function"
        },
        {
            "constant": false,
            "inputs": [],
            "name": "start",
            "outputs": [],
            "payable": false,
            "stateMutability": "nonpayable",
            "type": "function"
        },
        {
            "constant": true,
            "inputs": [
                {
                    "name": "owner",
                    "type": "address"
                },
                {
                    "name": "spender",
                    "type": "address"
                }
            ],
            "name": "allowance",
            "outputs": [
                {
                    "name": "",
                    "type": "uint256"
                }
            ],
            "payable": false,
            "stateMutability": "view",
            "type": "function"
        },
        {
            "constant": false,
            "inputs": [
                {
                    "name": "newOwner",
                    "type": "address"
                }
            ],
            "name": "transferOwnership",
            "outputs": [],
            "payable": false,
            "stateMutability": "nonpayable",
            "type": "function"
        },
        {
            "inputs": [
                {
                    "name": "name",
                    "type": "string"
                },
                {
                    "name": "symbol",
                    "type": "string"
                },
                {
                    "name": "totalSupply",
                    "type": "uint256"
                },
                {
                    "name": "decimals",
                    "type": "uint8"
                }
            ],
            "payable": false,
            "stateMutability": "nonpayable",
            "type": "constructor"
        },
        {
            "payable": true,
            "stateMutability": "payable",
            "type": "fallback"
        },
        {
            "anonymous": false,
            "inputs": [
                {
                    "indexed": true,
                    "name": "from",
                    "type": "address"
                },
                {
                    "indexed": true,
                    "name": "to",
                    "type": "address"
                },
                {
                    "indexed": true,
                    "name": "delegate",
                    "type": "address"
                },
                {
                    "indexed": false,
                    "name": "amount",
                    "type": "uint256"
                },
                {
                    "indexed": false,
                    "name": "fee",
                    "type": "uint256"
                }
            ],
            "name": "TransferPreSigned",
            "type": "event"
        },
        {
            "anonymous": false,
            "inputs": [
                {
                    "indexed": true,
                    "name": "account",
                    "type": "address"
                },
                {
                    "indexed": false,
                    "name": "releaseTime",
                    "type": "uint256"
                },
                {
                    "indexed": false,
                    "name": "amount",
                    "type": "uint256"
                }
            ],
            "name": "LockChanged",
            "type": "event"
        },
        {
            "anonymous": false,
            "inputs": [
                {
                    "indexed": true,
                    "name": "previousOwner",
                    "type": "address"
                },
                {
                    "indexed": true,
                    "name": "newOwner",
                    "type": "address"
                }
            ],
            "name": "OwnershipTransferred",
            "type": "event"
        },
        {
            "anonymous": false,
            "inputs": [
                {
                    "indexed": true,
                    "name": "from",
                    "type": "address"
                },
                {
                    "indexed": true,
                    "name": "to",
                    "type": "address"
                },
                {
                    "indexed": false,
                    "name": "value",
                    "type": "uint256"
                }
            ],
            "name": "Transfer",
            "type": "event"
        },
        {
            "anonymous": false,
            "inputs": [
                {
                    "indexed": true,
                    "name": "owner",
                    "type": "address"
                },
                {
                    "indexed": true,
                    "name": "spender",
                    "type": "address"
                },
                {
                    "indexed": false,
                    "name": "value",
                    "type": "uint256"
                }
            ],
            "name": "Approval",
            "type": "event"
        }
    ],
    "bytecode": "60806040526006805460a060020a60ff02191690553480156200002157600080fd5b5060405162001adc38038062001adc83398101604090815281516020808401519284015160608501519285018051909594909401939092918591859185918591859185918491620000799160009190860190620001e1565b5081516200008f906001906020850190620001e1565b506002805460ff90921660ff19909216919091179055505060068054600160a060020a03191633179055620000e8620000d0640100000000620000f6810204565b60ff8316600a0a840264010000000062000106810204565b505050505050505062000283565b600654600160a060020a03165b90565b600160a060020a03821615156200011c57600080fd5b60055462000139908264010000000062001219620001c782021704565b600555600160a060020a0382166000908152600360205260409020546200016f908264010000000062001219620001c782021704565b600160a060020a03831660008181526003602090815260408083209490945583518581529351929391927fddf252ad1be2c89b69c2b068fc378daa952ba7f163c4a11628f55a4df523b3ef9281900390910190a35050565b600082820183811015620001da57600080fd5b9392505050565b828054600181600116156101000203166002900490600052602060002090601f016020900481019282601f106200022457805160ff191683800117855562000254565b8280016001018555821562000254579182015b828111156200025457825182559160200191906001019062000237565b506200026292915062000266565b5090565b6200010391905b808211156200026257600081556001016200026d565b61184980620002936000396000f3006080604052600436106101485763ffffffff7c010000000000000000000000000000000000000000000000000000000060003504166306fdde03811461014d57806307da68f5146101d7578063095ea7b3146101ee5780631296830d1461022657806315420b711461029957806318160ddd146102db57806319045a25146102f057806323b872dd1461036a578063313ce5671461039457806339509351146103bf5780633e05c943146103e357806342966c681461040a5780636b9db4e6146104225780636ebcf6071461045c57806370a082311461047d57806375f12b211461049e57806379cc6790146104b35780638da5cb5b146104d75780638e99d7d8146104ec57806395d89b411461055f578063a457c2d714610574578063a9059cbb14610598578063be9a6555146105bc578063dd62ed3e146105d1578063f2fde38b146105f8575b600080fd5b34801561015957600080fd5b50610162610619565b6040805160208082528351818301528351919283929083019185019080838360005b8381101561019c578181015183820152602001610184565b50505050905090810190601f1680156101c95780820380516001836020036101000a031916815260200191505b509250505060405180910390f35b3480156101e357600080fd5b506101ec6106af565b005b3480156101fa57600080fd5b50610212600160a060020a03600435166024356106f9565b604080519115158252519081900360200190f35b34801561023257600080fd5b506040805160206004803580820135601f810184900484028501840190955284845261021294369492936024939284019190819084018382808284375094975050508335600160a060020a0316945050506020820135916040810135915060600135610777565b3480156102a557600080fd5b506102c9600160a060020a0360043581169060243516604435606435608435610a30565b60408051918252519081900360200190f35b3480156102e757600080fd5b506102c9610b14565b3480156102fc57600080fd5b5060408051602060046024803582810135601f810185900485028601850190965285855261034e958335953695604494919390910191908190840183828082843750949750610b1a9650505050505050565b60408051600160a060020a039092168252519081900360200190f35b34801561037657600080fd5b50610212600160a060020a0360043581169060243516604435610bef565b3480156103a057600080fd5b506103a9610c8c565b6040805160ff9092168252519081900360200190f35b3480156103cb57600080fd5b50610212600160a060020a0360043516602435610c95565b3480156103ef57600080fd5b506101ec600160a060020a0360043516602435604435610d45565b34801561041657600080fd5b506101ec600435610dbe565b34801561042e57600080fd5b50610443600160a060020a0360043516610dcb565b6040805192835260208301919091528051918290030190f35b34801561046857600080fd5b506102c9600160a060020a0360043516610df3565b34801561048957600080fd5b506102c9600160a060020a0360043516610e05565b3480156104aa57600080fd5b50610212610e20565b3480156104bf57600080fd5b506101ec600160a060020a0360043516602435610e41565b3480156104e357600080fd5b5061034e610e4f565b3480156104f857600080fd5b506040805160206004803580820135601f810184900484028501840190955284845261021294369492936024939284019190819084018382808284375094975050508335600160a060020a0316945050506020820135916040810135915060600135610e5e565b34801561056b57600080fd5b50610162611031565b34801561058057600080fd5b50610212600160a060020a0360043516602435611091565b3480156105a457600080fd5b50610212600160a060020a03600435166024356110dc565b3480156105c857600080fd5b506101ec611177565b3480156105dd57600080fd5b506102c9600160a060020a03600435811690602435166111aa565b34801561060457600080fd5b506101ec600160a060020a03600435166111d5565b60008054604080516020601f60026000196101006001881615020190951694909404938401819004810282018101909252828152606093909290918301828280156106a55780601f1061067a576101008083540402835291602001916106a5565b820191906000526020600020905b81548152906001019060200180831161068857829003601f168201915b5050505050905090565b6106b76111f1565b15156106c257600080fd5b6006805474ff0000000000000000000000000000000000000000191674010000000000000000000000000000000000000000179055565b6000600160a060020a038316151561071057600080fd5b336000818152600460209081526040808320600160a060020a03881680855290835292819020869055805186815290519293927f8c5be1e5ebec7d5bd14f71427d1e84f3dd0314c0f7b2291e5b200ac8c7c3b925929181900390910190a350600192915050565b60008080600160a060020a038716151561079057600080fd5b6009886040518082805190602001908083835b602083106107c25780518252601f1990920191602091820191016107a3565b51815160209384036101000a600019018019909216911617905292019485525060405193849003019092205460ff161591506107ff905057600080fd5b61080c3088888888610a30565b91506108188289610b1a565b9050600160a060020a038116151561082f57600080fd5b600160a060020a03811660009081526003602052604090205461086a90869061085e908963ffffffff61120216565b9063ffffffff61120216565b600160a060020a03808316600090815260036020526040808220939093559089168152205461089f908763ffffffff61121916565b600160a060020a0388166000908152600360205260408082209290925533815220546108d1908663ffffffff61121916565b6003600033600160a060020a0316600160a060020a031681526020019081526020016000208190555060016009896040518082805190602001908083835b6020831061092e5780518252601f19909201916020918201910161090f565b51815160209384036101000a6000190180199092169116179052920194855250604080519485900382018520805460ff1916961515969096179095558a84529351600160a060020a038c811695908716946000805160206117de8339815191529450829003019150a36040805186815290513391600160a060020a038416916000805160206117de8339815191529181900360200190a333600160a060020a031687600160a060020a031682600160a060020a03167fec5a73fd1f178be20c1bca1b406cbf4b5c20d833b66e582fc122fb4baa0fc2a48989604051808381526020018281526020019250505060405180910390a4506001979650505050505050565b604080517f48664c16000000000000000000000000000000000000000000000000000000006020808301919091526c01000000000000000000000000600160a060020a03808a16820260248501528816026038830152604c8201869052606c8201859052608c8083018590528351808403909101815260ac909201928390528151600093918291908401908083835b60208310610ade5780518252601f199092019160209182019101610abf565b5181516020939093036101000a600019018019909116921691909117905260405192018290039091209998505050505050505050565b60055490565b60008060008084516041141515610b345760009350610be6565b50505060208201516040830151606084015160001a601b60ff82161015610b5957601b015b8060ff16601b14158015610b7157508060ff16601c14155b15610b7f5760009350610be6565b60408051600080825260208083018085528a905260ff8516838501526060830187905260808301869052925160019360a0808501949193601f19840193928390039091019190865af1158015610bd9573d6000803e3d6000fd5b5050506020604051035193505b50505092915050565b60065460009074010000000000000000000000000000000000000000900460ff1615610c1a57600080fd5b610c24848361122b565b15610c79576040805160e560020a62461bcd02815260206004820152601560248201527f45524332303a204c6f636b65642062616c616e63650000000000000000000000604482015290519081900360640190fd5b610c848484846112ed565b949350505050565b60025460ff1690565b6000600160a060020a0383161515610cac57600080fd5b336000908152600460209081526040808320600160a060020a0387168452909152902054610ce0908363ffffffff61121916565b336000818152600460209081526040808320600160a060020a0389168085529083529281902085905580519485525191937f8c5be1e5ebec7d5bd14f71427d1e84f3dd0314c0f7b2291e5b200ac8c7c3b925929081900390910190a350600192915050565b610d4d6111f1565b1515610d5857600080fd5b600160a060020a03831660008181526007602090815260408083208690556008825291829020849055815185815290810184905281517fac9f677e99a4df77ed2008bfe08de2e751aab75dce03486489e20585d79e91ce929181900390910190a2505050565b610dc8338261148b565b50565b600160a060020a03166000908152600760209081526040808320546008909252909120549091565b60036020526000908152604090205481565b600160a060020a031660009081526003602052604090205490565b60065474010000000000000000000000000000000000000000900460ff1681565b610e4b8282611495565b5050565b600654600160a060020a031690565b6000806000610e6b6111f1565b1515610e7657600080fd5b600160a060020a0387161515610e8b57600080fd5b610e983088888888610a30565b9150610ea48289610b1a565b9050600160a060020a0381161515610ebb57600080fd5b600160a060020a038116600090815260036020526040902054610eea90869061085e908963ffffffff61120216565b600160a060020a038083166000908152600360205260408082209390935590891681522054610f1f908763ffffffff61121916565b600160a060020a038816600090815260036020526040808220929092553381522054610f51908663ffffffff61121916565b336000908152600360209081526040918290209290925580518881529051600160a060020a038a811693908516926000805160206117de833981519152929081900390910190a36040805186815290513391600160a060020a038416916000805160206117de8339815191529181900360200190a333600160a060020a031687600160a060020a031682600160a060020a03167fec5a73fd1f178be20c1bca1b406cbf4b5c20d833b66e582fc122fb4baa0fc2a48989604051808381526020018281526020019250505060405180910390a4506001979650505050505050565b60018054604080516020601f600260001961010087891615020190951694909404938401819004810282018101909252828152606093909290918301828280156106a55780601f1061067a576101008083540402835291602001916106a5565b6000600160a060020a03831615156110a857600080fd5b336000908152600460209081526040808320600160a060020a0387168452909152902054610ce0908363ffffffff61120216565b60065460009074010000000000000000000000000000000000000000900460ff161561110757600080fd5b611111338361122b565b15611166576040805160e560020a62461bcd02815260206004820152601560248201527f45524332303a204c6f636b65642062616c616e63650000000000000000000000604482015290519081900360640190fd5b6111708383611560565b9392505050565b61117f6111f1565b151561118a57600080fd5b6006805474ff000000000000000000000000000000000000000019169055565b600160a060020a03918216600090815260046020908152604080832093909416825291909152205490565b6111dd6111f1565b15156111e857600080fd5b610dc881611668565b600654600160a060020a0316331490565b6000808383111561121257600080fd5b5050900390565b60008282018381101561117057600080fd5b600160a060020a038216600090815260076020526040812054158015906112695750600160a060020a03831660009081526008602052604090205415155b801561128c5750600160a060020a03831660009081526007602052604090205442105b80156111705750600160a060020a0383166000908152600860205260409020546112b584610e05565b1115806111705750600160a060020a03831660009081526008602052604090205482906112e59061085e86610e05565b109392505050565b600160a060020a03831660009081526003602052604081205482111561134b576040805160e560020a62461bcd02815260206004820152601860248201526000805160206117fe833981519152604482015290519081900360640190fd5b600160a060020a038416600090815260046020908152604080832033845290915290205482111561137b57600080fd5b600160a060020a038316151561139057600080fd5b600160a060020a0384166000908152600360205260409020546113b9908363ffffffff61120216565b600160a060020a0380861660009081526003602052604080822093909355908516815220546113ee908363ffffffff61121916565b600160a060020a038085166000908152600360209081526040808320949094559187168152600482528281203382529091522054611432908363ffffffff61120216565b600160a060020a03808616600081815260046020908152604080832033845282529182902094909455805186815290519287169391926000805160206117de833981519152929181900390910190a35060019392505050565b610e4b82826116e6565b600160a060020a03821660009081526004602090815260408083203384529091529020548111156114fe576040805160e560020a62461bcd02815260206004820152601860248201526000805160206117fe833981519152604482015290519081900360640190fd5b600160a060020a0382166000908152600460209081526040808320338452909152902054611532908263ffffffff61120216565b600160a060020a0383166000908152600460209081526040808320338452909152902055610e4b828261148b565b336000908152600360205260408120548211156115b5576040805160e560020a62461bcd02815260206004820152601860248201526000805160206117fe833981519152604482015290519081900360640190fd5b600160a060020a03831615156115ca57600080fd5b336000908152600360205260409020546115ea908363ffffffff61120216565b3360009081526003602052604080822092909255600160a060020a0385168152205461161c908363ffffffff61121916565b600160a060020a0384166000818152600360209081526040918290209390935580518581529051919233926000805160206117de8339815191529281900390910190a350600192915050565b600160a060020a038116151561167d57600080fd5b600654604051600160a060020a038084169216907f8be0079c531659141344cd1fd0a4f28419497f9722a3daafe3b4186f6b6457e090600090a36006805473ffffffffffffffffffffffffffffffffffffffff1916600160a060020a0392909216919091179055565b600160a060020a03821615156116fb57600080fd5b600160a060020a038216600090815260036020526040902054811115611759576040805160e560020a62461bcd02815260206004820152601860248201526000805160206117fe833981519152604482015290519081900360640190fd5b60055461176c908263ffffffff61120216565b600555600160a060020a038216600090815260036020526040902054611798908263ffffffff61120216565b600160a060020a0383166000818152600360209081526040808320949094558351858152935191936000805160206117de833981519152929081900390910190a350505600ddf252ad1be2c89b69c2b068fc378daa952ba7f163c4a11628f55a4df523b3ef45524332303a204f766572647261776e2062616c616e63650000000000000000a165627a7a7230582090f44ab0fcedf4b7718cb0be869e4192fc2517e561abad2712cf062693541cf20029",
    "sourcePath": "d:/h-project/deploycoin/GenTokenV2/GenTokenV2.sol",
    "compiler": {
        "name": "solc",
        "version": "0.4.24+commit.e67f0147"
    },
    "functionHashes": {
        "_balances(address)": "6ebcf607",
        "allowance(address,address)": "dd62ed3e",
        "approve(address,uint256)": "095ea7b3",
        "balanceOf(address)": "70a08231",
        "burn(uint256)": "42966c68",
        "burnFrom(address,uint256)": "79cc6790",
        "decimals()": "313ce567",
        "decreaseAllowance(address,uint256)": "a457c2d7",
        "getLock(address)": "6b9db4e6",
        "increaseAllowance(address,uint256)": "39509351",
        "name()": "06fdde03",
        "owner()": "8da5cb5b",
        "recover(bytes32,bytes)": "19045a25",
        "setLock(address,uint256,uint256)": "3e05c943",
        "start()": "be9a6555",
        "stop()": "07da68f5",
        "stopped()": "75f12b21",
        "symbol()": "95d89b41",
        "totalSupply()": "18160ddd",
        "transfer(address,uint256)": "a9059cbb",
        "transferFrom(address,address,uint256)": "23b872dd",
        "transferOwnership(address)": "f2fde38b",
        "transferPreSigned(bytes,address,uint256,uint256,uint256)": "1296830d",
        "transferPreSignedHashing(address,address,uint256,uint256,uint256)": "15420b71",
        "transferPreSignedOwner(bytes,address,uint256,uint256,uint256)": "8e99d7d8"
    },
    "gasEstimates": {
        "creation": {
            "codeDepositCost": "1243400",
            "executionCost": "infinite",
            "totalCost": "infinite"
        },
        "external": {
            "": "616",
            "_balances(address)": "817",
            "allowance(address,address)": "1214",
            "approve(address,uint256)": "22480",
            "balanceOf(address)": "914",
            "burn(uint256)": "infinite",
            "burnFrom(address,uint256)": "infinite",
            "decimals()": "575",
            "decreaseAllowance(address,uint256)": "infinite",
            "getLock(address)": "1166",
            "increaseAllowance(address,uint256)": "infinite",
            "name()": "infinite",
            "owner()": "911",
            "recover(bytes32,bytes)": "infinite",
            "setLock(address,uint256,uint256)": "42722",
            "start()": "21162",
            "stop()": "20706",
            "stopped()": "737",
            "symbol()": "infinite",
            "totalSupply()": "494",
            "transfer(address,uint256)": "infinite",
            "transferFrom(address,address,uint256)": "infinite",
            "transferOwnership(address)": "23321",
            "transferPreSigned(bytes,address,uint256,uint256,uint256)": "infinite",
            "transferPreSignedHashing(address,address,uint256,uint256,uint256)": "infinite",
            "transferPreSignedOwner(bytes,address,uint256,uint256,uint256)": "infinite"
        }
    }
}